:020000040800F2
:100000000020002091190008910A0008930A0008B6
:1000100000000000000000000000000000000000E0
:10002000000000000000000000000000950A000829
:100030000000000000000000970A0008990A00086C
:10004000E1190008E1190008E1190008E1190008A8
:10005000E119000841060008E1190008E11900084B
:10006000E1190008E1190008E1190008A10A0008D7
:10007000E1190008E1190008E1190008E119000878
:10008000E1190008E119000800000000E11900086A
:10009000E1190008E1190008E1190008E119000858
:1000A000E1190008E1190008E1190008E119000848
:1000B000E119000800000000E1190008000000003C
:1000C000002243088B4274D303098B425FD3030A97
:1000D0008B4244D3030B8B4228D3030C8B420DD3AA
:1000E000FF22090212BA030C8B4202D31212090238
:1000F00065D0030B8B4219D300E0090AC30B8B4276
:1001000001D3CB03C01A5241830B8B4201D38B0323
:10011000C01A5241430B8B4201D34B03C01A5241C8
:10012000030B8B4201D30B03C01A5241C30A8B420B
:1001300001D3CB02C01A5241830A8B4201D38B02F6
:10014000C01A5241430A8B4201D34B02C01A52419A
:10015000030A8B4201D30B02C01A5241CDD2C3090C
:100160008B4201D3CB01C01A524183098B4201D388
:100170008B01C01A524143098B4201D34B01C01A73
:10018000524103098B4201D30B01C01A5241C308EB
:100190008B4201D3CB00C01A524183088B4201D35A
:1001A0008B00C01A524143088B4201D34B00C01A46
:1001B0005241411A00D20146524110467047FFE7B2
:1001C00001B5002000F006F802BDC0460029F7D0B6
:1001D00076E770477047C04610B5064C2378002B71
:1001E00007D1054B002B02D0044800E000BF0123DB
:1001F000237010BD14060020000000003C1A000807
:10020000044B10B5002B03D00349044800E000BFA5
:1002100010BDC04600000000180600203C1A00086F
:1002200010B586B004AC08220021200001F0D9FBF3
:100230001E4B5A698021C9030A435A615A690A4010
:100240000392039A5A69802189020A435A615A69C2
:100250000A400292029A5A698021C9020A435A61ED
:100260005B690B400193019B114A93680F218B43FB
:1002700093609021C905CB68032083430122134377
:10028000CB600B6883430B6004922271002363717F
:10029000A271200001F012FB00220021052000F0D5
:1002A00053FC052000F080FC06B010BD0010024099
:1002B0000000014000B583B0094A51690123194388
:1002C0005161526913400193019B002200210B20D0
:1002D00000F03AFC0B2000F067FC03B000BDC04604
:1002E0000010024082B003004000C01800230193B8
:1002F00004E0C046C046019B01330193019B834249
:10030000F7D302B07047000070B51420FFF7EAFF82
:100310000A4CA36980252D022B43A3611420FFF70B
:10032000E1FFA26980231B061343A3611420FFF79A
:10033000D9FFA3691D43A56170BDC04600080048F0
:1003400010B50400454A91698023DB010B4393619A
:1003500043B2002B46DB9022D205916980231B0615
:100360000B439361630645D59022D20591698023A2
:100370005B010B439361A30644D5394A91698023FD
:100380009B000B439361E30643D5354A9169802373
:100390005B000B439361FFF7B7FF230740D5902223
:1003A000D205916980231B020B43936163073FD5FC
:1003B0009022D205916980235B010B439361A307CF
:1003C0003ED5274A916980239B000B439361E40744
:1003D0003DD5234A916980235B000B439361FFF76E
:1003E00093FF10BD9022D205916980231B020B431D
:1003F0009361B7E79022D205916980235B050B4397
:100400009361B8E7164A916980239B040B4393617B
:10041000B9E7134A916980235B040B439361BAE700
:100420009022D205916980231B060B439361BDE79F
:100430009022D205916980235B050B439361BEE74F
:10044000074A916980239B040B439361BFE7044AE9
:10045000916980235B040B439361C0E70008004867
:100460000004004870B50500002403E0FFF768FFB2
:100470000134E4B2285D0028F8D170BD10B5040045
:10048000474A91698023DB050B43936143B2002BFC
:1004900049DB9022D205916980231B060B439361AF
:1004A000630648D59022D205916980235B010B43F6
:1004B0009361A30647D53B4A916980239B000B4378
:1004C0009361E30646D5374A916980235B000B436D
:1004D0009361FFF719FF230743D59022D205916955
:1004E00080231B020B439361630742D59022D20500
:1004F000916980235B010B439361A30741D5294A8E
:10050000916980239B000B439361E40740D5254A02
:10051000916980235B000B439361FFF7F5FE22484E
:10052000FFF7E0FE10BD9022D205916980231B02E7
:100530000B439361B4E79022D205916980235B0558
:100540000B439361B5E7174A916980239B040B43E2
:100550009361B6E7134A916980235B040B4393616F
:10056000B7E79022D205916980231B060B43936164
:10057000BAE79022D205916980235B050B43936112
:10058000BBE7084A916980239B040B439361BCE756
:10059000044A916980235B040B439361BDE7C04625
:1005A0000008004800040048B80B000010B51B4BC1
:1005B0005969802292020A435A6159698022D20203
:1005C0000A435A615969802212030A435A619022F0
:1005D000D20511688223DB050B431360104A1168B2
:1005E000A023DB020B4313600E4A1168A023DB0536
:1005F0000B4313600C48FFF775FE3320FFF73EFFF7
:100600003220FFF73BFF0C20FFF738FF2820FFF7D1
:1006100035FF0120FFF732FF10BDC0460010024039
:1006200000040048000800483075000010B50400C0
:100630000120FFF723FF2000FFF714FF10BD00008B
:1006400010B500F07BFA304B1B68C01A642822D921
:1006500000F074FA2C4B18602C4B1A68D3682C49A4
:100660000B40D3602B4800F052FB2B4B1B78012B27
:100670002DD0022B39D0002B11D0274B00221A701D
:10068000264B1A6826492348802300F005FB25489D
:10069000FFF7CCFF10E0012000F07AFC16E01E4BC3
:1006A00001221A701D4B1A681F491A48802300F056
:1006B000F3FA1E48FFF7BAFF144B1A68D16880237B
:1006C0009B000B43D360012000F062FC10BD124B75
:1006D00002221A70114B1A6815490E48802300F047
:1006E000DBFA1448FFF7A2FFE6E70B4B00221A7073
:1006F0000A4B1A680A490748802300F0CDFA0948D6
:10070000FFF794FFD8E7C0463006002078060020A7
:10071000FFFDFFFF34060020080700200000002036
:10072000080200206C1A000808000020541A000873
:1007300008040020601A000872B6FEE700B58FB00A
:10074000102200210AA801F04CF90822002108A873
:1007500001F047F91C22002101A801F042F92048CC
:100760008023DB0503600023436083601D4A126819
:10077000013AC26003618033836100F061FD0028AB
:1007800024D180235B010A9315480AA900F0D2FE08
:1007900000281DD1124800F07FFD00281AD1002347
:1007A000089309930E4808A901F052F8002813D1C4
:1007B000002301930293039305930948002201A9A2
:1007C00000F006FE002809D10FB000BDFFF7B4FF0E
:1007D000FFF7B2FFFFF7B0FFFFF7AEFFFFF7ACFF89
:1007E000780600200400002000B58FB01022002100
:1007F0000AA801F0F6F80822002108A801F0F1F893
:100800001C22002101A801F0ECF82148214B0360D3
:10081000002343608360204AC260036180338361A8
:1008200000F00EFD002828D180235B010A931848B0
:100830000AA900F07FFE002821D1154800F058FDDC
:1008400000281ED1002308930993114808A900F03D
:10085000FFFF002817D16023019300230293039325
:1008600005930B48082201A900F0E0FD00280CD1F7
:10087000074800F0E5F80FB000BDFFF75DFFFFF798
:100880005BFFFFF759FFFFF757FFFFF755FFC04624
:10089000C006002000040040FF03000010B51A4A03
:1008A000136801218B431360174B1B68DB07FBD4D4
:1008B000164A136801210B431360144B1B689B07F6
:1008C000FBD5124B1A68F8218A4378390A431A601B
:1008D0005A6870318A435A605A680D490A405A6012
:1008E0005A6803218A435A60084B5B680C221A42FB
:1008F000FAD1084801F046F8032000F0DBF80028A0
:1009000000D110BDFFF718FF002002400010024088
:10091000FFF8FFFF00127A0010B500F0F3F8FFF7C0
:1009200045FEFFF7BBFFFFF77BFCFFF7C3FCFFF7BC
:1009300005FFFFF759FF0D48082100F00BFF0C4C95
:100940000021200000F088FE0A4B1A680A490B4873
:10095000802300F0A1F90A48FFF768FE2268D168F9
:1009600080239B000B43D360FEE7C046C0060020F7
:100970007806002000000020080200203406002035
:100980006C1A000882B00A4B9969012211439961DF
:1009900099690A400092009ADA69802149050A4360
:1009A000DA61DB690B400193019B02B07047C046DE
:1009B0000010024010B582B0040003688022D20506
:1009C000934204D01A4A934227D002B010BD194A6C
:1009D000D16901231943D161D26913400093009B6F
:1009E0001548164B03601023436000238360802268
:1009F000C2608132FF3202618022120142612022F4
:100A00008261C36100F020F9002803D10A4B6362C0
:100A10005C62DAE7FFF790FEF8E7064AD169022345
:100A20001943D161D26913400193019BCDE7C046C0
:100A3000000400400010024034060020580002402C
:100A400010B586B004001422002101A800F0C9FFEF
:100A500022680C4B9A4201D006B010BD0A4B5A696D
:100A60008021C9020A435A615B690B400093009BD5
:100A70000123019302220292059301A9034800F089
:100A8000C1F9E9E7000400400010024000040048FA
:100A9000FEE7FEE77047704710B500F043F810BD61
:100AA00010B5024800F058F910BDC04634060020C9
:100AB0007047000010B504000F4B1978FA20800031
:100AC000FFF7FEFA01000D4B1868FFF7F9FA00F086
:100AD00077F800280DD1032C01D901200AE001305C
:100AE00000222100404200F02FF8054B1C6000203E
:100AF00000E0012010BDC0460C06002008060020C2
:100B00001006002010B5064A136810210B4313602D
:100B10000320FFF7CFFFFFF735FF002010BDC046D1
:100B200000200240034A1168034B1B785B181360D6
:100B30007047C0460C0700200C060020014B1868C7
:100B40007047C0460C07002070B5002811DB8308F1
:100B5000134DC0339B005C5903221040C000FC328F
:100B600016008640B44389010A40824022435A510C
:100B700070BD0F230340083B9B0806339B00094AC6
:100B8000944663445C6803221040C000FC321500A8
:100B90008540AC4389010A40824022435A60E7E71E
:100BA00000E100E000ED00E0002805DB1F23184015
:100BB0001E3B8340014A13607047C04600E100E0DD
:100BC000013880235B0498420FD2094A50600948DB
:100BD000036A1B021B0AC02109060B4303620023A0
:100BE000936007331360002070470120FCE7C04684
:100BF00010E000E000ED00E070B5066CC56B01246C
:100C0000B4406C60046863604368102B04D00368D0
:100C100099600368DA6070BD03689A600368D96000
:100C2000F9E7000010B504000068054B9C466044DD
:100C30001421FFF745FA80002064024BE36310BDE6
:100C4000F8FFFDBF0000024070B5041E20D0212532
:100C50000223435501680A680E4B1A4043688068B6
:100C60000343E06803432069034360690343A069C9
:100C70000343E069034313430B602000FFF7D2FFF7
:100C80000023A363012262551F32A354002070BDCC
:100C90000120FCE70FC0FFFF70B504002020205C9E
:100CA000012832D02020012525540130205C012864
:100CB00004D020230022E254022070BD20300135F0
:100CC00025540020A063256828680126B0432860C9
:100CD0002000FFF791FFE36A002B0BD02268136816
:100CE0000E210B4313602268136801210B4313602C
:100CF0000020E2E7226813680A210B431360226890
:100D0000136806398B431360EDE70220D5E710B571
:100D10002123C35C022B03D004238363012010BD75
:100D2000026813680E218B43136001680A6801236F
:100D30009A430A60016CC26B1C008C4054602122F3
:100D400083541F330022C254436B002B02D09847B8
:100D50000020E4E70020E2E770B5C36B1A6804687E
:100D60002568016C04238B401A4212D06B0710D502
:100D700023689B0603D42368042293432360016CF9
:100D8000C26B04238B405360C36A002B00D098478A
:100D900070BD02238B401A4218D0AB0716D52368CA
:100DA0009B0606D423680A22934323602123093A31
:100DB000C254016CC26B02238B405360202300227B
:100DC000C254836A002BE3D09847E1E708238B40A5
:100DD0001A42DDD02D07DBD523680E229343236012
:100DE000016CC26B01231C008C4054608363212280
:100DF00083541F330022C254036B002BC8D0984782
:100E0000C6E70000F0B583B0002356E086685F00B7
:100E10000324BC40A643CC68BC403443846044688F
:100E200094434E683609012232409A402243426080
:100E300053E0DE080836B600375805321A409200F3
:100E40000F249440A7430C69944022003A43325047
:100E500056E0032600E00026A64034003C43023260
:100E60009200444E9451444A9768EA433E00AE4390
:100E70004C68E40201D53E002E433F4CA660E76873
:100E80003E0016404C68A40201D53E002E433A4C69
:100E9000E66067683E0016404C68A40301D53E003A
:100EA0002E43354C6660266832404C68E40301D519
:100EB0002A003243304C226001330C682200DA40B1
:100EC00056D001229A40250015401442F4D04E68B5
:100ED00003243440013C012C98D94C680322224061
:100EE000032A08D0C4685E000322B24094438A6893
:100EF000B2402243C2604C6803222240022A98D0AA
:100F000004685E0003221700B740BC434F683A40B4
:100F1000B240224302604C68C02292021442CBD0FD
:100F2000164CA66901221643A661A46922400192CB
:100F3000019A9A08941CA4000E4EA75903241C4041
:100F4000A4000F26A640B7439026F605B04282D0F3
:100F50000B4EB04208D00B4EB04207D00A4EB04202
:100F600000D176E7052677E7012675E7022673E7C5
:100F700003B0F0BD00000140000401400010024039
:100F80000004004800080048000C004870470000BA
:100F900010B5054B5B69184200D110BD024B58617A
:100FA000FFF7F4FFF9E7C0460004014030B5036ADB
:100FB000012293430362056A426883697324A34351
:100FC0000C681C4302239D438B682B43154DA8429C
:100FD00008D0154DA84205D0144DA84202D0144D9A
:100FE000A84206D10825AB431D00CB682B4304253E
:100FF000AB430C4DA84208D00B4DA84205D00B4D79
:10100000A84202D00A4DA84205D10A4D2A404D6996
:1010100015438A692A43426084614A6842630362D5
:1010200030BDC046002C014000400140004401405A
:1010300000480140FFFCFFFF30B5036A194A134026
:101040000362046A4268C3697325AB430D681D439C
:10105000154B1C408B681B022343144CA04219D033
:10106000124CA04208D0124CA04205D0114CA04214
:1010700002D0114CA04207D1104C22404C692401EF
:1010800014438A69120122434260C5614A68C263FF
:10109000036230BD0A4C1C40CB681B022343094C41
:1010A0002340DDE7FFFEFFFFFFFDFFFF002C0140B7
:1010B000004001400044014000480140FFCFFFFFD5
:1010C000FFF7FFFFFFFBFFFF30B5036A134A134032
:1010D0000362046A4368C269114D2A400D682D02FB
:1010E0001543104A14408A68120322430E4CA04252
:1010F00008D00E4CA04205D00D4CA04202D00D4CA1
:10110000A04204D10C4C1C404B699B01234343601B
:10111000C5614B680364026230BDC046FFEFFFFF4C
:10112000FF8CFFFFFFDFFFFF002C0140004001406C
:101130000044014000480140FFBFFFFF30B5036A93
:10114000046A0125AC4304628469EF35AC431201A3
:1011500022430A24A3430B438261036230BD000093
:1011600030B5036A1024A34303628469036A054D02
:101170002C4012032243A024A34309011943826196
:10118000016230BDFF0FFFFF8368702293430B4362
:10119000693A134383607047704770470368214A78
:1011A000904206D08022D205904202D01E4A904240
:1011B00003D1702293434A6813431A4A904212D0D3
:1011C0008022D20590420ED0174A90420BD0174A87
:1011D000904208D0164A904205D0164A904202D05A
:1011E000154A904203D1154A1A40CB681343802216
:1011F00093434A69134303608B68C3620B6883623D
:10120000084B984208D00A4B984205D0094B9842A7
:1012100002D0094B984201D10B690363012343615A
:101220007047C046002C01400004004000200040F0
:10123000004001400044014000480140FFFCFFFF26
:1012400070B5041E26D03D23C35C002B1CD03D2569
:1012500002236355210001C9FFF7A0FF01234622A5
:10126000A354083AA3540132A3540132A3540132C7
:10127000A3540132A3540132A3540132A3540132C6
:10128000A3546355002070BD3C330022C254FFF7C5
:1012900091FBDCE70120F6E770B5041E26D03D2364
:1012A000C35C002B1CD03D2502236355210001C9DE
:1012B000FFF774FF01234622A354083AA3540132D6
:1012C000A3540132A3540132A3540132A354013276
:1012D000A3540132A3540132A3546355002070BDBE
:1012E0003C330022C254FFF757FFDCE70120F6E74A
:1012F00070B5041E26D03D23C35C002B1CD03D25B9
:1013000002236355210001C9FFF748FF012346224C
:10131000A354083AA3540132A3540132A354013216
:10132000A3540132A3540132A3540132A354013215
:10133000A3546355002070BD3C330022C254FFF714
:101340002CFFDCE70120F6E770B5036A1022934317
:101350000362026A44688369174D2B400D682D02B1
:101360001D4320239A438B681B011343134A904269
:1013700019D0124A904208D0114A904205D0114A21
:10138000904202D0104A904207D1104A14404A6954
:10139000920022438C69A4001443446085614A682A
:1013A0008263036270BD802293431E00CB681B01E1
:1013B0003343403A9343DCE7FF8CFFFF002C0140AE
:1013C000004001400044014000480140FFF3FFFF9E
:1013D00010B504003C23C35C012B24D03C23012026
:1013E000E054082A1AD008D8002A12D0042A0CD1B6
:1013F0002068FFF7A9FF002007E00C2A04D120682D
:10140000FFF762FE002000E001203C230022E254AE
:1014100010BD2068FFF7CAFD0020F6E72068FFF73F
:101420000BFE0020F1E70220F2E7000070B5040097
:101430000D003C23C35C012B00D16AE03C23012159
:10144000C154082A50D01CD8002A38D0042A16D1FA
:1014500000682900FFF778FF2268916980231B014B
:101460000B439361226893692B490B409361216878
:101470008B692A69120213438B6100201BE008006C
:1014800019E00C2A16D100682900FFF71DFE22681A
:10149000D16980231B010B43D3612268D3691E49A4
:1014A0000B40D3612168CB692A6912021343CB61D7
:1014B000002000E001203C230022E25470BD0068BF
:1014C0002900FFF773FD2268936908210B4393619C
:1014D0002268936904398B4393612268936929696F
:1014E0000B4393610020E6E700682900FFF7A4FDA5
:1014F0002268D36908210B43D3612268D369043978
:101500008B43D3612268D36929690B43D3610020DF
:10151000D1E70220D2E7C046FFFBFFFF30B5846869
:10152000034D2C401B0213430B432343836030BD08
:10153000FF00FFFF10B5040008003C23E35C012B13
:1015400000D177E03C230122E25401330132E2541E
:101550002268936838490B409360016860294FD036
:1015600029D8402957D00CD9502922D14168C268C6
:101570002068FFF7E3FD20685021FFF705FE0020FB
:1015800005E020290ED009D930290BD001203D23B8
:101590000122E254013B0022E25410BD002901D097
:1015A000102904D12068FFF7EFFD0020EFE70120AC
:1015B000EDE70120EBE780225201914236D08022F4
:1015C000920191420DD181684268C3682068FFF79B
:1015D000A5FF226891688023DB010B439360002004
:1015E000D5E7702924D181684268C3682068FFF775
:1015F00095FF2268936877210B4393600020C6E72C
:101600004168C2682068FFF7ABFD20686021FFF7E2
:10161000BBFD0020BBE74168C2682068FFF78EFD74
:1016200020684021FFF7B0FD0020B0E70020AEE7C2
:101630000120ACE70220B0E78800FFFF10B51F23B0
:10164000194001248C40036AA3430362036A8A4061
:101650001343036210BD000010B50400002936D109
:101660003E23C35C013B5A1E9341DBB2002B62D187
:10167000002945D13E330222E25420680122FFF7BF
:10168000DDFF23682E4A934208D02E4A934205D0AC
:101690002D4A934202D02D4A934204D1596C8022A4
:1016A00012020A435A642368254A934238D08022A2
:1016B000D205934234D0264A934231D0214A9342F4
:1016C0002ED01A6801210A431A60002034E0042950
:1016D00008D008290DD04123C35C013B5A1E934119
:1016E000DBB2C3E73F23C35C013B5A1E9341DBB22D
:1016F000BCE74023C35C013B5A1E9341DBB2B5E714
:10170000042905D0082907D041230222E254B4E776
:101710003F230222E254B0E740230222E254ACE726
:10172000996807220A40062A07D01A6801210A434D
:101730001A60002000E0012010BD0020FCE7C04638
:10174000002C01400040014000440140004801409D
:101750000004004010B50400002936D13E23C35CCC
:10176000013B5A1E9341DBB2002B62D1002945D1C7
:101770003E330222E25420680122FFF75FFF236814
:101780002E4A934208D02E4A934205D02D4A9342C6
:1017900002D02D4A934204D1596C802212020A438E
:1017A0005A642368254A934238D08022D205934256
:1017B00034D0264A934231D0214A93422ED01A681F
:1017C00001210A431A60002034E0042908D00829C6
:1017D0000DD04123C35C013B5A1E9341DBB2C3E7EA
:1017E0003F23C35C013B5A1E9341DBB2BCE740235D
:1017F000C35C013B5A1E9341DBB2B5E7042905D017
:10180000082907D041230222E254B4E73F230222F1
:10181000E254B0E740230222E254ACE79968072281
:101820000A40062A07D01A6801210A431A600020DC
:1018300000E0012010BD0020FCE7C046002C014064
:1018400000400140004401400048014000040040C5
:1018500030B53C23C35C012B28D03C230122C25469
:1018600001330132C25403685C689D686E32944350
:101870000A6822435A6003680D4A934209D08022C5
:10188000D205934205D00B4A934202D00A4A9342B2
:1018900004D1802295434A682A439A603D2301225D
:1018A000C254013B0022C254002030BD0220FCE79C
:1018B000002C0140000400400040014010B503002E
:1018C0000079002850D01A68002A57D0587901288A
:1018D00018D0022820D000280BD001209A79002AA5
:1018E0004BD0022A2CD0032A34D0012A1ED001204A
:1018F00043E023494C6894434C601A680C682243C7
:101900000A60EBE71E490868904308601A68486857
:1019100002434A600020E1E71949086802430A606F
:101920001A68486802434A600020D7E71C68144AD6
:10193000D168A143D1601B6891680B4393601CE0A0
:101940001C680F4A9168A14391601B68D1680B43E2
:10195000D36012E019680A4A9468214391601B68B9
:10196000D1680B43D36008E01C68054A1168A143A5
:101970001160196853688B43536010BD0020FCE769
:1019800000040140014B18607047C0460806002063
:101990000D488546FFF78CF80C480D490D4A002389
:1019A00002E0D458C4500433C4188C42F9D30A4A14
:1019B0000A4C002301E013600432A242FBD300F082
:1019C00019F8FEF7A9FFFEE7002000200000002024
:1019D000140600207C1A00081406002010070020BE
:1019E000FEE703008218934200D17047197001335B
:1019F000F9E7000070B500260C4C0D4D641BA410D7
:101A0000A64209D1002600F019F80A4C0A4D641BC1
:101A1000A410A64205D170BDB300EB58984701361B
:101A2000EEE7B300EB5898470136F2E7741A000866
:101A3000741A0008781A0008741A0008F8B5C0462D
:101A4000F8BC08BC9E467047F8B5C046F8BC08BC58
:041A50009E467047F7
:101A5400536177746F6F7468000000005472696199
:101A64006E676C650000000053696E65000000003D
:041A74000102000863
:041A7800D901000888
:101A7C003C040040AB010000000000000800000026
:101A8C0010000000180000002000000028000000DA
:101A9C00300000003800000040000000480000004A
:101AAC0050000000580000006000000068000000BA
:101ABC00700000007800000080000000880000002A
:101ACC009000000098000000A0000000A80000009A
:101ADC00B0000000B8000000C0000000C80000000A
:101AEC00D0000000D8000000E0000000E80000007A
:101AFC00F0000000F80000000001000008010000E8
:101B0C001001000018010000200100002801000055
:101B1C0030010000380100004001000048010000C5
:101B2C005001000058010000600100006801000035
:101B3C0070010000780100008001000088010000A5
:101B4C009001000098010000A0010000A801000015
:101B5C00B0010000B8010000C0010000C801000085
:101B6C00D0010000D8010000E0010000E8010000F5
:101B7C00F0010000F8010000000200000802000063
:101B8C0010020000180200002002000028020000D1
:101B9C003002000038020000400200004802000041
:101BAC0050020000580200006002000068020000B1
:101BBC007002000078020000800200008802000021
:101BCC009002000098020000A0020000A802000091
:101BDC00B0020000B8020000C0020000C802000001
:101BEC00D0020000D8020000E0020000E802000071
:101BFC00F0020000F80200000003000008030000DF
:101C0C00100300001803000020030000280300004C
:101C1C0030030000380300004003000048030000BC
:101C2C00500300005803000060030000680300002C
:101C3C00700300007803000080030000880300009C
:101C4C009003000098030000A0030000A80300000C
:101C5C00B0030000B8030000C0030000C80300007C
:101C6C00D0030000D8030000E0030000E8030000EC
:101C7C00F0030000F803000000020000190200004D
:101C8C00320200004B020000640200007C020000E3
:101C9C0095020000AC020000C4020000DB02000050
:101CAC00F1020000070300001C03000031030000D8
:101CBC0045030000580300006A0300007B0300008A
:101CCC008C0300009B030000AA030000B703000074
:101CDC00C4030000CF030000D9030000E20300009E
:101CEC00EA030000F1030000F6030000FA03000011
:101CFC00FE030000FF03000000040000FF030000CF
:101D0C00FE030000FA030000F6030000F1030000DC
:101D1C00EA030000E2030000D9030000CF03000037
:101D2C00C4030000B7030000AA0300009B030000DB
:101D3C008C0300007B0300006A03000058030000C2
:101D4C0045030000310300001C03000007030000E2
:101D5C00F1020000DB020000C4020000AC02000033
:101D6C00950200007C020000640200004B0200009F
:101D7C00320200001902000000020000E70100001E
:101D8C00CE010000B50100009C01000084010000A0
:101D9C006B010000540100003C0100002501000013
:101DAC000F010000F9000000E4000000CF0000006B
:101DBC00BB000000A8000000960000008500000099
:101DCC00740000006500000056000000490000008F
:101DDC003C00000031000000270000001E00000045
:101DEC00160000000F0000000A00000006000000B2
:101DFC0002000000010000000000000001000000D3
:101E0C0002000000060000000A0000000F000000A5
:101E1C00160000001E00000027000000310000002A
:101E2C003C00000049000000560000006500000066
:101E3C00740000008500000096000000A80000005F
:101E4C00BB000000CF000000E4000000F90000001F
:101E5C000F010000250100003C01000054010000AE
:101E6C006B010000840100009C010000B501000022
:101E7C00CE010000E701000000000000100000008F
:101E8C002000000030000000400000005000000066
:101E9C006000000070000000800000009000000056
:101EAC00A0000000B0000000C0000000D000000046
:101EBC00E0000000F0000000000100001001000034
:101ECC002001000030010000400100005001000022
:101EDC006001000070010000800100009001000012
:101EEC00A0010000B0010000C0010000D001000002
:101EFC00E0010000F00100000002000010020000F0
:101F0C0020020000300200004002000050020000DD
:101F1C0060020000700200008002000090020000CD
:101F2C00A0020000B0020000C0020000D0020000BD
:101F3C00E0020000F00200000003000010030000AB
:101F4C002003000030030000400300005003000099
:101F5C006003000070030000800300009003000089
:101F6C00A0030000B0030000C0030000D003000079
:101F7C00E0030000F003000000040000F003000088
:101F8C00E0030000D0030000C0030000B003000019
:101F9C00A003000090030000800300007003000009
:101FAC0060030000500300004003000030030000F9
:101FBC00200300001003000000030000F0020000EA
:101FCC00E0020000D0020000C0020000B0020000DD
:101FDC00A0020000900200008002000070020000CD
:101FEC0060020000500200004002000030020000BD
:101FFC00200200001002000000020000F0010000AE
:10200C00E0010000D0010000C0010000B0010000A0
:10201C00A001000090010000800100007001000090
:10202C006001000050010000400100003001000080
:10203C00200100001001000000010000F000000071
:10204C00E0000000D0000000C0000000B000000064
:10205C00A000000090000000800000007000000054
:10206C006000000050000000400000003000000044
:10207C00200000001000000000127A000100000097
:04208C00040000004C
:040000050800199145
:00000001FF
